:020000040800F2
:10000000100C00209D010008A5010008A7010008B0
:10001000A9010008AB010008AD01000800000000C4
:10002000000000000000000000000000AF01000818
:10003000B101000800000000B3010008B50100088C
:10004000B7010008B7010008B7010008B7010008B0
:10005000B7010008B7010008B7010008B7010008A0
:10006000B7010008B7010008B701000865020008E1
:10007000B7010008B70100087D020008A9020008C6
:10008000B7010008B7010008B7010008B701000870
:10009000B7010008B7010008B7010008B701000860
:1000A000B7010008B7010008B7010008B701000850
:1000B000B7010008B7010008B7010008B701000840
:1000C000B7010008B7010008B7010008B701000830
:1000D000B70100086D1C0008B7010008B70100084F
:1000E000B7010008B7010008B7010008B701000810
:1000F000B7010008B7010008B7010008D1020008E5
:10010000B7010008B7010008B7010008B7010008EF
:10011000B7010008B7010008B7010008B7010008DF
:10012000E9020008B7010008B7010008B70100089C
:10013000B7010008B7010008B7010008B7010008BF
:10014000B7010008B7010008B7010008B7010008AF
:1001500011030008B7010008B7010008B701000843
:10016000B7010008B7010008B7010008B70100088F
:10017000B7010008B7010008B7010008B70100087F
:10018000B7010008B7010008DFF80CD000F02AF82A
:100190000048004741200008100C00200648804716
:1001A00006480047FEE7FEE7FEE7FEE7FEE7FEE75C
:1001B000FEE7FEE7FEE7FEE7511C000889010008A4
:1001C00040EA01039B0703D009E008C9121F08C0D9
:1001D000042AFAD203E011F8013B00F8013B521E59
:1001E000F9D27047064C074D06E0E06840F0010385
:1001F00094E8070098471034AC42F6D3FFF7C8FFE5
:10020000D0210008F021000870B501EB020410F8BD
:10021000015B15F0070301D110F8013B2A1106D14B
:1002200010F8012B03E010F8016B01F8016B5B1E65
:10023000F9D12B0705D40023521E0FD401F8013B3E
:10024000FAE710F8013B02F10202A1EB030303E01D
:1002500013F8015B01F8015B521EF9D5A142D6D318
:10026000002070BD10B501F029FA034A20200021BA
:10027000C2E9020110BD00000060024010B5084C48
:100280004FF00040206001F013F8064A4FF0006084
:100290000021C2E902014FF08020206010BD000063
:1002A000180802400060024010B5074C4FF00040B3
:1002B000206001F063F8054A00202021C2E9020114
:1002C0004FF08020206010BD1808024000600240FE
:1002D00010B501F05DFA034A00204FF00061C2E959
:1002E000020110BD00600240074810B5007838B127
:1002F00000F064FD054A20200021C2E9000110BD84
:1003000000F0E2FAF6E7000018000020086402405E
:1003100010B50B4C4FF0004020600A48007858B1EF
:1003200000F0C0FD084A00204FF40061C2E900015E
:100330004FF08020206010BD00F03AFBF2E7000093
:1003400018080240180000200864024005490028EF
:10035000086802D040F4806001E020F4806008600A
:1003600070470000003C024005490028086802D0A0
:1003700040F4007001E020F4007008607047000055
:10038000003C024005490028086802D040F4807013
:1003900001E020F48070086070470000003C0240DB
:1003A0000149087070470000003C02404B07DB0E1B
:1003B0009A40C90810B500EB8100016A0F249C40E7
:1003C000A1430162016A1143016210BD10B505200D
:1003D00000F068F8064800F06BF905480068054928
:1003E000B0FBF1F00449088001F030FC10BD0000C2
:1003F0000006002040420F00DC00002070B50F21F5
:10040000C478027801234FF0E026E4B1124C24684E
:1004100004F4E064C4F5E064C4F30724C4F1040503
:10042000E1404478AC4085780D4025430B4C2901D0
:100430001155007800F01F018B40400906EB800049
:10044000C0F8003170BD02F01F008340500906EB78
:100450008000C0F8803170BD0CED00E000E400E0E9
:100460000249084302490860704700000000FA058D
:100470000CED00E0044A0029116801D0014300E0BE
:10048000814311607047000030380240044A00295F
:10049000116801D0014300E0814311607047000002
:1004A00040380240F8B50446082600F0E3F8012081
:1004B00000F06AF900F0A8F90546012D79D10C2C5D
:1004C00078D2DFE804F006121F2C3946525E6A78B3
:1004D00084900320FFF764FF0F200223C822082125
:1004E0000090C80400F072F98AE00520FFF758FF79
:1004F0000F2002234FF4A87208210090C80400F0D6
:1005000065F97DE00520FFF74BFF0F2002234FF434
:10051000C07208210090C80400F058F970E005206E
:10052000FFF73EFF0F2002234FF4C872082100900E
:10053000C80400F04BF963E00620FFF731FF0F20FD
:1005400002234FF4D27208210090C80400F03EF953
:1005500056E00620FFF724FF072002236E221946EB
:100560000090580500F032F94AE00720FFF718FF25
:1005700007200223732219460090580500F026F93F
:100580003EE00720FFF70CFF0720022375221946E3
:100590000090580500F01AF932E00720FFF700FF3D
:1005A00007200223782219460090580500F00EF922
:1005B00026E05AE023E00720FFF7F2FE072002239F
:1005C0007D2219460090580500F000F918E0072038
:1005D000FFF7E6FE07200223822219460090580505
:1005E00000F0F4F80CE00720FFF7DAFE0720022302
:1005F0008C2219460090580500F0E8F800E000BF92
:1006000000BF012000F0DCF800BF392000F098F8AE
:100610000028FAD00120FFF7B5FE0120FFF7A4FE65
:100620000120FFF793FE002000F0A4F8012C06DC67
:10063000002000F0B1F8002000F0B8F812E0052C1E
:1006400008DC4FF4805000F0A7F84FF4805000F021
:10065000ADF807E04FF4805000F09EF84FF4805062
:1006600000F0A4F8022000F0C5F80DB10120F8BD9B
:100670000020FCE70B48016841F001010160094AD4
:100680000021083211600268074B1A400260031D06
:10069000064A1A60026822F48022026001480C3087
:1006A0000160704700380240FFFFF6FE1030002462
:1006B00070B5204A1168204C11F00C0104D066106E
:1006C000042903D0082903D004601BE0066019E068
:1006D0001849091F0B68C3F380550B6803F03F03EB
:1006E00015B1B6FBF3F301E0B4FBF3F30C68096852
:1006F000C4F388146343C1F30141491C4900B3FBAF
:10070000F1F1016011680F2303EA11110B4B5C5CDE
:100710000168E14041601468072505EA94241C5DE6
:1007200021FA04F48460126805EA52329A5CD140DE
:10073000C16070BD083802400024F40008000020A9
:1007400002460020510901290BD002290CD008498A
:10075000096802F01F02012393400B4200D00120E0
:10076000704703497439F3E70149091FF0E70000B6
:1007700074380240034A116821F0F001014311600E
:100780007047000008380240024900220A700870D1
:100790007047000002380240034A116821F4E0511A
:1007A00001431160704700000838024003490A689D
:1007B00022F4604242EAC0000860704708380240F4
:1007C00001490866704700000000474241EA821173
:1007D0005A0810B5054B029C03EB0242114301433A
:1007E00041EA04600249086010BD00000000FFFFFC
:1007F00004380240034A116821F0030101431160EB
:10080000704700000838024018B500204FF4A0647B
:1008100000903120FFF794FF0099491C0091A142FC
:1008200001D00028F5D03120FFF78AFF002800D042
:10083000012018BD70B5234D00202988002908BF6C
:1008400070BD012918BF70BD95F8240010F0080F85
:1008500006D0287A10F0040F0CBF022000202BE0F5
:10086000082000F077F90146164801F025FB044600
:1008700010F0010F1DD004F44070B0F5007F04BFEC
:10088000092000F067F94FF44070A04304BF0A202C
:1008900000F060F904F44060B0F5006F04BF0B2075
:1008A00000F058F94FF44060A04304BF0C2000F062
:1008B00051F9012020EA9400A98C81F00801A98453
:1008C00070BD00003C0000202DE9F04182B0FFF730
:1008D000B1FF0021314C4FF00108002841D0012820
:1008E00004BF02B0BDE8F08102281CBF02B0BDE821
:1008F000F081A0782A4D2B4F2B4E88B12B4B202016
:100900008201C3E90002286820F0010028603868ED
:1009100020F001003860B08820F00300B080A170A2
:100920000023009101911A461946022000F0B4F804
:1009300084F80280607820F00C006070607840F0ED
:1009400001006070B08840F00300B080386840F06B
:1009500011003860286840F01100286002B0BDE83E
:10096000F081607840F0040060706169002904BF84
:1009700002B0BDE8F08104208847A07838B16078E3
:100980000C2131EA00001CBF02B0BDE8F08102205A
:10099000616902B0BDE8F04108470000180000207E
:1009A0008864024010640240003001400864024044
:1009B0002DE9F04182B0FFF73DFF0021314C4FF0AF
:1009C0000108002841D0012804BF02B0BDE8F08131
:1009D00002281CBF02B0BDE8F081A0782A4D2B4F41
:1009E0002B4E88B12B4B20208201C3E900022868DE
:1009F00020F001002860386820F001003860B088DD
:100A000020F00300B080A1700023009101911A46EC
:100A10001946022000F040F884F80280607820F047
:100A20000C006070607840F001006070B08840F0A9
:100A30000300B080386840F011003860286840F04A
:100A40001100286002B0BDE8F081607840F0080035
:100A500060706169002904BF02B0BDE8F081082020
:100A60008847A07838B160780C2131EA00001CBFBB
:100A700002B0BDE8F0810220616902B0BDE8F0413A
:100A800008470000180000208864024010640240FB
:100A900000300140086402402DE9F00F254CDDE9EB
:100AA00008BCDFF89C80244D244EDFF89890271F67
:100AB000A8F1040A10B3DFF890C0012807BFCCE901
:100AC0000312ACF814300228BDE8F00F18BF7047CD
:100AD000012020601D4929603E60C8F80000481CC4
:100AE000C9F800001A48CAF80000BCF8240020F039
:100AF0000800ACF82400BDE8F00F704723602960BF
:100B00001BF1000018BF4FF4806030433860C8F814
:100B10000030C9F80020BCF1000F0CBF00204FF4DA
:100B2000806040F4403040F0C060CAF80000BDE88A
:100B3000F00F70478C64024094640240400003064A
:100B4000146402401C6402403C000020220000208B
:100B50000000030670B5002486B00D2880F0DD800B
:100B6000DFE800F0073390CA2D4D5ADB777C818691
:100B70008B006B4E0525012340F202322946304698
:100B800001F002F92A4605213046FFF70FFC012348
:100B900041F202320621304601F0F6F82A460621DB
:100BA0003046FFF703FC012340F2023207213046B2
:100BB00001F0EAF82A4607213046FFF7F7FB012348
:100BC00040F201320421564816E0554D012310220F
:100BD0000521284601F0D8F80123102206212846D5
:100BE00001F0D2F8012310220721284601F0CCF8A9
:100BF000012310220421284601F0C6F88DE0484E5A
:100C00000525012340F202320421304601F0BCF8F0
:100C10002A46042130466CE0414D012340F2013266
:100C20000521284601F0B0F801231A0306212846C1
:100C300001F0AAF8012340F201320721284601F011
:100C4000A3F8012340F201320421284601F09CF868
:100C500063E03348007CC0F380145EE030494FF419
:100C60000000886159E02E494FF08010886154E0FF
:100C70002B494FF4001088614FE029494FF02010B4
:100C800088614AE0274D0021284600F0B9FF002086
:100C9000ADF800004FF48271ADF80210ADF8040019
:100CA0000221ADF806100121ADF808104902ADF897
:100CB0000A102821ADF80C10ADF80E000720ADF891
:100CC00010006946284600F0A5FF0121284600F0E3
:100CD00097FF134D012340F202320521284601F00F
:100CE00053F8052206212846FFF760FB052207215D
:100CF0002846FFF75BFB10E0094D01231A0305218D
:100D0000284601F041F80F2206212846FFF74EFB46
:100D10000F2207212846FFF749FB06B0204670BD89
:100D2000000002400030014070B5234D00202988AA
:100D3000002908BF70BD012918BF70BD95F82400B7
:100D400010F0080F06D0287A10F0040F0CBF022014
:100D500000202BE0082000F077F90146164801F04A
:100D6000ABF8044610F0010F1DD004F44070B0F54C
:100D7000007F04BF092000F067F94FF44070A043E2
:100D800004BF0A2000F060F904F44060B0F5006F81
:100D900004BF0B2000F058F94FF44060A04304BF9B
:100DA0000C2000F051F9012020EA9400A98C81F078
:100DB0000801A98470BD0000640000202DE9F04105
:100DC00082B0FFF7B1FF0021314C4FF0010800283D
:100DD00041D0012804BF02B0BDE8F08102281CBF49
:100DE00002B0BDE8F08120792A4D2B4F2B4E88B1FF
:100DF0002B4B20208201C3E90002286820F001006B
:100E00002860386820F001003860B08820F00300C6
:100E1000B08021710023009101911A4619460220E9
:100E200000F0B4F884F80480E07820F00C00E07062
:100E3000E07840F00100E070B08840F00300B0803E
:100E4000386840F011003860286840F011002860D0
:100E500002B0BDE8F081E07840F00400E070A169E4
:100E6000002904BF02B0BDE8F08104208847207942
:100E700038B1E0780C2131EA00001CBF02B0BDE8B7
:100E8000F0810220A16902B0BDE8F04108470000EE
:100E900018000020886402401064024000300140C5
:100EA000086402402DE9F04182B0FFF73DFF0021C8
:100EB000314C4FF00108002841D0012804BF02B096
:100EC000BDE8F08102281CBF02B0BDE8F0812079A6
:100ED0002A4D2B4F2B4E88B12B4B20208201C3E98A
:100EE0000002286820F001002860386820F0010026
:100EF0003860B08820F00300B08021710023009199
:100F000001911A461946022000F040F884F8048046
:100F1000E07820F00C00E070E07840F00100E07034
:100F2000B08840F00300B080386840F011003860AD
:100F3000286840F01100286002B0BDE8F081E07838
:100F400040F00800E070A169002904BF02B0BDE8CC
:100F5000F08108208847207938B1E0780C2131EA07
:100F600000001CBF02B0BDE8F0810220A16902B000
:100F7000BDE8F041084700001800002088640240E6
:100F80001064024000300140086402402DE9F00F77
:100F9000254CDDE908BCDFF89C80244D244EDFF8A9
:100FA0009890271FA8F1040A10B3DFF890C0012819
:100FB00007BFCCE90312ACF814300228BDE8F00FEB
:100FC00018BF7047012020601D4929603E60C8F8A5
:100FD0000000481CC9F800001A48CAF80000BCF814
:100FE000240020F00800ACF82400BDE8F00F7047A2
:100FF000236029601BF1000018BF4FF4806030436C
:101000003860C8F80030C9F80020BCF1000F0CBFF0
:1010100000204FF4806040F4403040F0C060CAF8D7
:101020000000BDE8F00F70478C64024094640240F9
:1010300040000306146402401C6402406400002067
:10104000240000200000030670B5002486B00D289F
:1010500080F0D780DFE800F007358BC42D4F5CD5DA
:1010600072777C818600684E0525012340F20232AA
:101070000321304600F088FE2A4603213046FFF760
:1010800095F9012341F202320421304600F07CFE42
:101090002A4604213046FFF789F9012340F2023243
:1010A0002946304600F070FE2A4605213046FFF7FB
:1010B0007DF9012340F201320F21544800F064FE13
:1010C0009FE0514D012310220321284600F05CFED1
:1010D000012310220421284600F056FE012310228D
:1010E0000521284600F050FE012310220F21474819
:1010F00000F04AFE85E0454E0525012340F202320C
:101100000F21304600F040FE2A460F21304664E0B1
:101110003D4D012340F201320321284600F034FE08
:1011200001231A030421284600F02EFE012340F279
:1011300001320521284600F027FEBAE7344800783E
:10114000C0F300145DE033494FF40010086058E02C
:1011500030494FF02010086053E02E494FF4002032
:1011600008604EE02B494FF00810086049E02A4D16
:101170000021284600F044FD0021ADF800104FF496
:101180008270ADF80200ADF808106815ADF80A00DD
:101190003020ADF80C008020ADF80E00ADF8041042
:1011A0000720ADF80610ADF810006946284600F09B
:1011B00031FD0121284600F023FD134D012340F2AB
:1011C00002320321284600F0DFFD052204212846D3
:1011D000FFF7ECF8052211462846FFF7E7F810E084
:1011E000094D01235A030321284600F0CDFD0F22AB
:1011F00004212846FFF7DAF80F2205212846FFF7D9
:10120000D5F806B0204670BD000402400000024040
:1012100010040240180402400030014070B5234D14
:1012200000202988002908BF70BD012918BF70BDA2
:1012300095F8240010F0080F06D0287A10F0040F5B
:101240000CBF022000202BE0082000F04DF90146E1
:10125000164800F031FE044610F0010F1DD004F4D2
:101260004070B0F5007F04BF092000F03DF94FF455
:101270004070A04304BF0A2000F036F904F4406037
:10128000B0F5006F04BF0B2000F02EF94FF4406062
:10129000A04304BF0C2000F027F9012020EA9400AD
:1012A000A98C81F00801A98470BD00008C00002089
:1012B000F0B583B0FFF7B2FF012700212C4C0028C6
:1012C0003BD0012804BF03B0F0BD02281CBF03B00F
:1012D000F0BDA079274D284E80B170062022C5E9C7
:1012E0000202286F20F001002867A86D20F001009D
:1012F000A865308820F003003080A17100230091A0
:1013000001911A461946022000F09EF8A7716079F3
:1013100020F00C006071607940F00100607130884D
:1013200040F003003080A86D40F01100A865286FE0
:1013300040F01100286703B0F0BD607940F0040070
:101340006071E169002904BF03B0F0BD0420884743
:10135000A07930B160790C2131EA00001CBF03B0E4
:10136000F0BD0220E16903B0BDE8F040084700008D
:10137000180000200060024004380040F0B583B03F
:10138000FFF74CFF012700212C4C00283BD00128FF
:1013900004BF03B0F0BD02281CBF03B0F0BDA079AC
:1013A000274D284E80B170062022C5E90202286F21
:1013B00020F001002867A86D20F00100A8653088A2
:1013C00020F003003080A1710023009101911A46A2
:1013D0001946022000F038F8A771607920F00C005F
:1013E0006071607940F001006071308840F0030066
:1013F0003080A86D40F01100A865286F40F0110002
:10140000286703B0F0BD607940F008006071E169C1
:10141000002904BF03B0F0BD08208847A07930B18F
:1014200060790C2131EA00001CBF03B0F0BD02203E
:10143000E16903B0BDE8F040084700001800002053
:10144000006002400438004030B4DFF888C0DDE9B5
:10145000025408B3204C012807BFC4E90312A38239
:10146000022830BC18BF70470120CCF874001B491B
:10147000CCF87C101A49CCF87010CCF85C001948F4
:10148000CCF864004FF44030CCF85800A08C20F029
:101490000800A08430BC7047CCF87430CCF87C10C5
:1014A000281C18BF4FF4806040F0400040F44030EA
:1014B000CCF87000CCF85C30CCF86420002C0CBF69
:1014C00000204FF4806040F44030CCF8580030BC2D
:1014D00070470000006002408C00002026000020C1
:1014E000400003002700002070B500240D284DD2D5
:1014F000DFE800F0073391912D4D5C91797E838870
:101500008D00464E0525012340F202320D21304662
:1015100000F03AFC2A460D213046FEF747FF012332
:1015200041F202320E21304600F02EFC2A460E21F6
:101530003046FEF73BFF012340F202320F213046D6
:1015400000F022FC2A460F213046FEF72FFF012330
:1015500040F201320C21314816E0304D01231022B7
:101560000D21284600F010FC012310220E212846F0
:1015700000F00AFC012310220F21284600F004FC91
:10158000012310220C21284600F0FEFB43E0234EED
:101590000525012340F202320C21304600F0F4FB15
:1015A0002A460C213046FEF701FF34E01B4D012393
:1015B00040F201320D21284600F0E6FB01231A0318
:1015C0000E21284600F0E0FB012340F201320F21FA
:1015D000284600F0D9FB012340F201320C212846B5
:1015E00000F0D2FB17E00E480088C0F3803412E010
:1015F0000C494FF0004008600DE00A494FF0802090
:10160000086008E007494FF00050086003E0054912
:101610004FF020200860204670BD0000000402400A
:10162000100402401804024070B5234D00202988A0
:10163000002908BF70BD012918BF70BD95F82400AE
:1016400010F0080F06D0287A10F0040F0CBF02200B
:1016500000202BE0082000F0E1F90146164800F0D8
:101660002BFC044610F0010F1DD004F44070B0F5BF
:10167000007F04BF092000F0D1F94FF44070A0436F
:1016800004BF0A2000F0CAF904F44060B0F5006F0E
:1016900004BF0B2000F0C2F94FF44060A04304BF28
:1016A0000C2000F0BBF9012020EA9400A98C81F005
:1016B0000801A98470BD0000B4000020F0B583B01B
:1016C000FFF7B2FF012700212E4C00283FD0012850
:1016D00004BF03B0F0BD02281CBF03B0F0BD207AE8
:1016E000294D2A4E90B120208205C5E90202D5F885
:1016F000B80020F00100C5F8B800286920F001000A
:101700002861308820F0030030802172002300918E
:1017100001911A461946022000F008F92772E07973
:1017200020F00C00E071E07940F00100E0713088B9
:1017300040F003003080286940F011002861D5F89E
:10174000B80040F01100C5F8B80003B0F0BDE07972
:1017500040F00400E071216A002904BF03B0F0BD2D
:1017600004208847207A30B1E0790C2131EA00006A
:101770001CBF03B0F0BD0220216A03B0BDE8F040F9
:10178000084700001800002000600240043C0040B0
:10179000F0B583B0FFF748FF012700212E4C002849
:1017A0003FD0012804BF03B0F0BD02281CBF03B026
:1017B000F0BD207A294D2A4E90B120208205C5E93E
:1017C0000202D5F8B80020F00100C5F8B800286979
:1017D00020F001002861308820F003003080217261
:1017E0000023009101911A461946022000F09EF84C
:1017F0002772E07920F00C00E071E07940F0010000
:10180000E071308840F003003080286940F011001A
:101810002861D5F8B80040F01100C5F8B80003B051
:10182000F0BDE07940F00800E071216A002904BFB2
:1018300003B0F0BD08208847207A30B1E0790C2150
:1018400031EA00001CBF03B0F0BD0220216A03B0E2
:10185000BDE8F0400847000018000020006002408A
:10186000043C00400D49087A002808BF7047202238
:1018700093050B48C0E90223D0F8B82022F00102FA
:10188000C0F8B820026922F001020261054802880E
:1018900022F0030202800020087270471800002026
:1018A00000600240043C004038B501214805FEF7C5
:1018B000E1FD104800244462C0F8CC400E4981612B
:1018C000C0F8C0104FF4A060FEF7CAFD8DF80140CB
:1018D0008DF8024001208DF803000B208DF80000E8
:1018E0006846FEF78BFD2F208DF800006846FEF756
:1018F00085FD38BD006002400C3C00400149086293
:10190000704700001800002000B582B0844603989C
:10191000CDE90030044813460A460088614600F0CD
:1019200005F802B000BD0000B400002030B4DFF8BC
:1019300088C0DDE9025408B3204C012807BFC4E980
:101940000312A382022830BC18BF70470120CCF8D4
:10195000BC001B49CCF8C4101A49CCF8B810CCF81C
:1019600014001948CCF81C004FF44030CCF810009B
:10197000A08C20F00800A08430BC7047CCF8BC30AC
:10198000CCF8C410281C18BF4FF4806040F0400011
:1019900040F44030CCF8B800CCF81430CCF81C201F
:1019A000002C0CBF00204FF4806040F44030CCF895
:1019B000100030BC7047000000600240B4000020FE
:1019C00028000020400003002900002010B5104C22
:1019D000216A00291CBF0120884701202072E0797C
:1019E00020F00C00E071E07940F00100E07109485E
:1019F000018841F0030101800748016941F01101AC
:101A00000161D0F8B81041F01101C0F8B81010BD54
:101A100018000020043C00400060024070B5002423
:101A20000D284FD2DFE800F007358C8C2D4F5E8CEF
:101A300074797E838800434E0625012340F20232EA
:101A40000A21304600F0A0F92A460A213046FEF766
:101A5000ADFC012341F202320B21304600F094F933
:101A60002A460B213046FEF7A1FC012340F2023248
:101A70000C21304600F088F92A460C213046FEF74A
:101A800095FC012340F201320F212F4800F07CF930
:101A900056E02C4D012310220A21284600F074F94B
:101AA000012310220B21284600F06EF90123102299
:101AB0000C21284600F068F9012310220F2122484A
:101AC00000F062F93CE0204E0625012340F202328C
:101AD0000F21304600F058F92A460F213046FEF714
:101AE00065FC2DE0174D012340F201320A21284602
:101AF00000F04AF901231A030B21284600F044F9AB
:101B0000012340F201320C21284600F03DF9B8E7EC
:101B10000E480088C0F3C02412E00D494FF08050F9
:101B200008600DE00A494FF01020086008E00849FD
:101B30004FF08060086003E005494FF00420086022
:101B4000204670BD0008024000000240100802401C
:101B50001808024010B50020FFF760FF014900207F
:101B6000088010BDB400002010B5012186B0C80364
:101B7000FEF78CFC144C0021204600F041F80021B7
:101B8000ADF800104FF48270ADF80200ADF804100B
:101B90000220ADF806000120ADF808004002ADF8C3
:101BA0000A001020ADF80C000720ADF80E10ADF8BB
:101BB00010006946204600F02DF80121204600F073
:101BC0001FF806B010BD0000003C004008B5FFF74C
:101BD000CBFFFFF769FEFFF7BDFF0748FFF78EFE5B
:101BE00000200649009001230422081FFFF78CFE05
:101BF000BDE80840FFF7EABEF51F0008040000201A
:101C00000029018802D041F0400101E021F04001AB
:101C10000180704730B502884C8802F441530A882D
:101C2000CD8822438C882C4322430C8922434C8943
:101C300022438C892243CC8922431A430280828B1F
:101C400022F400628283098A018230BD704700005D
:101C500010B50548006840F4700003490860002092
:101C6000FEF720FC10BD000088ED00E038B51C4CEC
:101C700040F22551204600F039F898B1204600F096
:101C80006CF88DF80000174800F0E3F920B101224C
:101C90006946144800F0FAF9012240F22771204603
:101CA00000F043F840F22771204600F01FF80028AA
:101CB00008BF38BD0C4800F0E3F940B10A4800F015
:101CC000D0F901462046BDE8384000F04AB8204629
:101CD000BDE83840002240F2277100F026B800002D
:101CE00000100140F80000200801002030B501F08C
:101CF0001F0201240025C1F3421304FA02F2012B52
:101D00000FD0022B0FD0838A4FEA11210088134293
:101D100004FA01F400EA040001D000B101252846CC
:101D200030BD8389F0E7038AEEE710B5C1F34213B3
:101D300001F01F040121A140012B07D0022B07D085
:101D40001430002A026805D00A4304E00C30F8E79A
:101D50001030F6E78A43026010BD8088C0F30800A7
:101D60007047C1F308018180704702E008C8121F64
:101D700008C1002AFAD170477047002001E001C174
:101D8000121F002AFBD170472DE9F0470446800559
:101D90001F4616460D46800D12D1A012A0F58010E8
:101DA000803808280CD2DFE800F00407282B2E31F9
:101DB00034370121084601E001210220FEF75AFBD9
:101DC00006F00F00310901F00F060909D4F8008070
:101DD00001F00F0C0A09690003238B4028EA03086D
:101DE00000FA01F949EA0808C4F800804FF0010838
:101DF000012818BF022828D111E001210420DDE7C5
:101E000001210820DAE701211020D7E70121202055
:101E1000D4E701214020D1E701218020CEE7D4F88A
:101E200008900CFA01FC29EA03094CEA090CC4F8F1
:101E300008C0D4F804C008FA05F9AE402CEA090C31
:101E4000B6B246EA0C0CC4F804C0D4F80CC002FACE
:101E500001F12CEA03031943E160012804D017F0D3
:101E6000020F08BFBDE8F08707F00100A84045F069
:101E7000100108FA01F10843A061BDE8F0870000F5
:101E8000DFF82CC00949ACF1040080224B684360A4
:101E900051F8083F40F8083F521EF7D172B6054886
:101EA000C0F800C0BFF34F8F62B67047FCFFFF075A
:101EB0000002002008ED00E0F0B402884FF0000CB2
:101EC000012A7AD1428C038C9A423CBF511C418436
:101ED00073D3428800244484052A60D2DFE802F0EC
:101EE00003090D172700017F41774FF0020C511CA9
:101EF00078E0437F521CC37792B2C37F002B1CBF94
:101F0000591EC1776FD1837F521CC37792B2838AE7
:101F1000002B45D0C368002B0FBFFF2303F1010C3A
:101F2000C0F80CC01B78C382521C848092B2848893
:101F3000858CC4F3470315F0040F19BF4FF0010C53
:101F40000CFA03F34FF0800C2CFA03F39BB2B0F8B9
:101F500016C004F0010605F001070CEA030CBE42AE
:101F60000CBF40F6010740F60147BCF1000F14BF5B
:101F700040F2013C40F2012C47EA0C0CC5F340054D
:101F8000AE4207D1058B002914BF45EA030125EABB
:101F900003010183611C89B28180102916D022E0DF
:101FA000C17F002919BF491EC17700224FF0040CE0
:101FB00090F8241011F0010F00E015E014BF40F676
:101FC000014140F6010141EA0C0C0CE001694CF0C2
:101FD000080C19B1037E4C1C04610B70818A491EE8
:101FE0008182511E8AB24280C0F808C0F0BC6046AF
:101FF0007047000038B50F4C10F0010F1CBF4FF0B8
:102000000041A16110F0020F12D0FFF72BFC4FF03E
:102010008020A0610848012304228178491C817036
:10202000002006490090081FFFF76EFCFFF7CEFC6A
:10203000002038BD00000240000000200400002005
:10204000FFF71EFFFEF7C2F9FFF7C0FD00E000BF7B
:10205000FDE741880288891A828880881140401AE9
:1020600070478268FF214AB1018882680A44491C8E
:1020700001801178028883881A40028008467047E0
:10208000418802888088891A084070472DE9F0430A
:102090000446806883B0164688460F4615460028D9
:1020A0003ED0B4F80490002D3AD0608800EA0900D0
:1020B000ADF80400BDF80400A9EB0000401CADF829
:1020C0000000BDF80000A84288BFADF8005061884C
:1020D0002088091AA0880840A188081ABDF80010B5
:1020E0008842F4D3A168BDF80400BDF8002008447C
:1020F0003946FEF765F8BDF80400BDF80010084445
:1021000000EA0900ADF80400BDF804106180BDF8D4
:1021100000000744BDF80000281A05042D0CC4D1A6
:10212000E068002804BF03B0BDE8F083E0684188A0
:102130000288891A828880881140401A80B28642BB
:1021400088BF0646002E3ED0E4683546A0680028C9
:1021500018BFA78837D060883840ADF80400BDF8B4
:102160000400381A401CADF80000BDF80000A84279
:1021700088BFADF8005060882188401AA1880840C7
:10218000A188081ABDF800108842F4D3A068BDF8F1
:102190000410BDF8002008444146FEF711F8BDF8D0
:1021A0000400BDF8001008443840ADF80400BDF844
:1021B00004006080BDF800008044BDF80000281ACB
:1021C00005042D0CC7D103B03046BDE8F0830000F4
:1021D000F0210008000000200006000008020008AE
:1021E0002822000800060020100600007A1D0008C2
:1021F000138FAA82F02D0102030404960607080932
:10220000025AFF0101360227030A4D045009222811
:1022100029D3131006BA20108A071001FF01FF010D
:08222000FF01FF01E8000000CE
:040000050800018965
:00000001FF
